{
  "contractName": "TestPrivate",
  "abi": [
    {
      "inputs": [
        {
          "internalType": "bytes32",
          "name": "_secret_data",
          "type": "bytes32"
        }
      ],
      "stateMutability": "nonpayable",
      "type": "constructor"
    },
    {
      "inputs": [
        {
          "internalType": "uint256",
          "name": "",
          "type": "uint256"
        }
      ],
      "name": "data",
      "outputs": [
        {
          "internalType": "uint256",
          "name": "",
          "type": "uint256"
        }
      ],
      "stateMutability": "view",
      "type": "function",
      "constant": true
    },
    {
      "inputs": [],
      "name": "owner",
      "outputs": [
        {
          "internalType": "address",
          "name": "",
          "type": "address"
        }
      ],
      "stateMutability": "view",
      "type": "function",
      "constant": true
    },
    {
      "inputs": [],
      "name": "slot_boolean",
      "outputs": [
        {
          "internalType": "bool",
          "name": "",
          "type": "bool"
        }
      ],
      "stateMutability": "view",
      "type": "function",
      "constant": true
    },
    {
      "inputs": [],
      "name": "slot_uint256",
      "outputs": [
        {
          "internalType": "uint256",
          "name": "",
          "type": "uint256"
        }
      ],
      "stateMutability": "view",
      "type": "function",
      "constant": true
    },
    {
      "inputs": [
        {
          "internalType": "uint8",
          "name": "_role",
          "type": "uint8"
        },
        {
          "internalType": "bytes32",
          "name": "_password",
          "type": "bytes32"
        }
      ],
      "name": "enrollUser",
      "outputs": [],
      "stateMutability": "nonpayable",
      "type": "function"
    }
  ],
  "bytecode": "0x608060405260016000806101000a81548160ff02191690831515021790555033600060016101000a81548173ffffffffffffffffffffffffffffffffffffffff021916908373ffffffffffffffffffffffffffffffffffffffff1602179055506103e860015534801561007157600080fd5b5060405161056c38038061056c833981810160405281019061009391906100db565b8060048190555050610108565b600080fd5b6000819050919050565b6100b8816100a5565b81146100c357600080fd5b50565b6000815190506100d5816100af565b92915050565b6000602082840312156100f1576100f06100a0565b5b60006100ff848285016100c6565b91505092915050565b610455806101176000396000f3fe608060405234801561001057600080fd5b50600436106100575760003560e01c80630b109f471461005c5780634dcece231461007857806387567618146100965780638da5cb5b146100b4578063f0ba8440146100d2575b600080fd5b610076600480360381019061007191906102c0565b610102565b005b6100806101f4565b60405161008d919061031b565b60405180910390f35b61009e610205565b6040516100ab919061034f565b60405180910390f35b6100bc61020b565b6040516100c991906103ab565b60405180910390f35b6100ec60048036038101906100e791906103f2565b610231565b6040516100f9919061034f565b60405180910390f35b6000604051806080016040528060058054905081526020018460ff1681526020013373ffffffffffffffffffffffffffffffffffffffff16815260200183815250905060058190806001815401808255809150506001900390600052602060002090600302016000909190919091506000820151816000015560208201518160010160006101000a81548160ff021916908360ff16021790555060408201518160010160016101000a81548173ffffffffffffffffffffffffffffffffffffffff021916908373ffffffffffffffffffffffffffffffffffffffff160217905550606082015181600201555050505050565b60008054906101000a900460ff1681565b60015481565b600060019054906101000a900473ffffffffffffffffffffffffffffffffffffffff1681565b6002816002811061024157600080fd5b016000915090505481565b600080fd5b600060ff82169050919050565b61026781610251565b811461027257600080fd5b50565b6000813590506102848161025e565b92915050565b6000819050919050565b61029d8161028a565b81146102a857600080fd5b50565b6000813590506102ba81610294565b92915050565b600080604083850312156102d7576102d661024c565b5b60006102e585828601610275565b92505060206102f6858286016102ab565b9150509250929050565b60008115159050919050565b61031581610300565b82525050565b6000602082019050610330600083018461030c565b92915050565b6000819050919050565b61034981610336565b82525050565b60006020820190506103646000830184610340565b92915050565b600073ffffffffffffffffffffffffffffffffffffffff82169050919050565b60006103958261036a565b9050919050565b6103a58161038a565b82525050565b60006020820190506103c0600083018461039c565b92915050565b6103cf81610336565b81146103da57600080fd5b50565b6000813590506103ec816103c6565b92915050565b6000602082840312156104085761040761024c565b5b6000610416848285016103dd565b9150509291505056fea2646970667358221220f25a5d7f2295a110d91c8e19d300c8823211cf5240ccfe8c8443ce5b26e8ce0a64736f6c63430008090033",
  "immutableReferences": {},
  "source": "// SPDX-License-Identifier: MIT\npragma solidity >=0.4.22 <0.9.0;\n\ncontract TestPrivate {\n\n  bool public slot_boolean = true;        //  slot 0 : 1 byte\n  address public owner = msg.sender;                   //  slot 0 : 20 bytes\n  uint256 public slot_uint256 = 1000;     //  slot 1 : 32 bytes\n  uint[2] public data;                    //  slot 2 : 32 bytes and slot 3 : 32 bytes (one slot per element)\n  bytes32 private secret_data;            //  slot 4 : 32 bytes\n\n  struct User{\n    uint id;\n    uint8 role;\n    address userAddress;\n    bytes32 password;\n  }\n\n  User[] private users;                //  slot 5 starts at keccak(5) for first user\n                                      //  second user at keccack(5) + (3  slot used for the storing one struct of user) \n\n  constructor(bytes32 _secret_data) {\n    secret_data = _secret_data;\n  }\n\n  function enrollUser(uint8 _role, bytes32 _password) external {\n    User memory user = User({\n      id: users.length,\n      role: _role,\n      userAddress: msg.sender,\n      password: _password\n    });\n\n    users.push(user);\n  }\n}\n",
  "sourcePath": "D:\\Documents\\Development\\Ether\\security\\solidity-private-data\\contracts\\TestPrivate.sol",
  "compiler": {
    "name": "solc",
    "version": "0.8.9+commit.e5eed63a.Emscripten.clang"
  },
  "schemaVersion": "3.4.4",
  "updatedAt": "2021-12-28T03:35:25.765Z",
  "networkType": "ethereum",
  "devdoc": {
    "kind": "dev",
    "methods": {},
    "version": 1
  },
  "userdoc": {
    "kind": "user",
    "methods": {},
    "version": 1
  }
}